{
  "contractName": "Authenticate",
  "abi": [
    {
      "inputs": [],
      "stateMutability": "nonpayable",
      "type": "constructor"
    },
    {
      "inputs": [],
      "name": "CAaddress",
      "outputs": [
        {
          "internalType": "address[]",
          "name": "",
          "type": "address[]"
        }
      ],
      "stateMutability": "view",
      "type": "function",
      "constant": true
    },
    {
      "inputs": [
        {
          "internalType": "address",
          "name": "_address",
          "type": "address"
        }
      ],
      "name": "CAautherize",
      "outputs": [],
      "stateMutability": "nonpayable",
      "type": "function"
    },
    {
      "inputs": [
        {
          "internalType": "string",
          "name": "_ID",
          "type": "string"
        },
        {
          "internalType": "uint256",
          "name": "_ED",
          "type": "uint256"
        },
        {
          "internalType": "string",
          "name": "_H",
          "type": "string"
        }
      ],
      "name": "CreateNotice",
      "outputs": [
        {
          "internalType": "int256",
          "name": "",
          "type": "int256"
        }
      ],
      "stateMutability": "nonpayable",
      "type": "function"
    },
    {
      "inputs": [
        {
          "internalType": "string",
          "name": "_VN",
          "type": "string"
        },
        {
          "internalType": "string",
          "name": "_R",
          "type": "string"
        },
        {
          "internalType": "uint256",
          "name": "_ED",
          "type": "uint256"
        },
        {
          "internalType": "string",
          "name": "_H",
          "type": "string"
        }
      ],
      "name": "CreateUser",
      "outputs": [
        {
          "internalType": "int256",
          "name": "",
          "type": "int256"
        }
      ],
      "stateMutability": "nonpayable",
      "type": "function"
    },
    {
      "inputs": [
        {
          "internalType": "string",
          "name": "_R",
          "type": "string"
        },
        {
          "internalType": "string",
          "name": "_VN",
          "type": "string"
        }
      ],
      "name": "UserInfo",
      "outputs": [
        {
          "internalType": "string",
          "name": "",
          "type": "string"
        },
        {
          "internalType": "string",
          "name": "",
          "type": "string"
        },
        {
          "internalType": "string",
          "name": "",
          "type": "string"
        },
        {
          "internalType": "uint256",
          "name": "",
          "type": "uint256"
        },
        {
          "internalType": "uint256",
          "name": "",
          "type": "uint256"
        }
      ],
      "stateMutability": "view",
      "type": "function",
      "constant": true
    },
    {
      "inputs": [],
      "name": "AllUser",
      "outputs": [
        {
          "components": [
            {
              "internalType": "string",
              "name": "versityName",
              "type": "string"
            },
            {
              "internalType": "string",
              "name": "roll",
              "type": "string"
            },
            {
              "internalType": "uint256",
              "name": "startDate",
              "type": "uint256"
            },
            {
              "internalType": "uint256",
              "name": "endDate",
              "type": "uint256"
            },
            {
              "internalType": "string",
              "name": "hash",
              "type": "string"
            },
            {
              "internalType": "bool",
              "name": "status",
              "type": "bool"
            }
          ],
          "internalType": "struct Authenticate.User[]",
          "name": "",
          "type": "tuple[]"
        }
      ],
      "stateMutability": "view",
      "type": "function",
      "constant": true
    },
    {
      "inputs": [
        {
          "internalType": "string",
          "name": "_R",
          "type": "string"
        },
        {
          "internalType": "string",
          "name": "_VN",
          "type": "string"
        }
      ],
      "name": "BanUser",
      "outputs": [],
      "stateMutability": "nonpayable",
      "type": "function"
    },
    {
      "inputs": [
        {
          "internalType": "string",
          "name": "_H",
          "type": "string"
        },
        {
          "internalType": "string",
          "name": "_VN",
          "type": "string"
        }
      ],
      "name": "CheckCertificate",
      "outputs": [
        {
          "internalType": "string",
          "name": "",
          "type": "string"
        }
      ],
      "stateMutability": "view",
      "type": "function",
      "constant": true
    }
  ],
  "bytecode": "0x60806040523480156200001157600080fd5b506000339080600181540180825580915050600190039060005260206000200160009091909190916101000a81548173ffffffffffffffffffffffffffffffffffffffff021916908373ffffffffffffffffffffffffffffffffffffffff160217905550600160008154809291906200008a906200013f565b919050555073c1bfa82a3f78535de497f9690a3f705c2f4f7eaf6003604051620000b490620001e7565b908152602001604051809103902060006101000a81548173ffffffffffffffffffffffffffffffffffffffff021916908373ffffffffffffffffffffffffffffffffffffffff160217905550620001fe565b7f4e487b7100000000000000000000000000000000000000000000000000000000600052601160045260246000fd5b6000819050919050565b60006200014c8262000135565b91507fffffffffffffffffffffffffffffffffffffffffffffffffffffffffffffffff820362000181576200018062000106565b5b600182019050919050565b600081905092915050565b7f416873616e756c6c616820556e69766572736974790000000000000000000000600082015250565b6000620001cf6015836200018c565b9150620001dc8262000197565b601582019050919050565b6000620001f482620001c0565b9150819050919050565b612137806200020e6000396000f3fe608060405234801561001057600080fd5b50600436106100885760003560e01c8063adb9d3ad1161005b578063adb9d3ad1461013d578063af5aed0f1461015b578063c8af072a1461018b578063f4039931146101a957610088565b80632deb0c971461008d578063400b79a7146100a95780634db87350146100d9578063905fd53c1461010d575b600080fd5b6100a760048036038101906100a29190611823565b6101c5565b005b6100c360048036038101906100be91906118da565b6103b8565b6040516100d091906119bc565b60405180910390f35b6100f360048036038101906100ee9190611823565b610893565b604051610104959493929190611a7f565b60405180910390f35b61012760048036038101906101229190611ae7565b610cc4565b60405161013491906119bc565b60405180910390f35b610145610fb8565b6040516101529190611c6c565b60405180910390f35b61017560048036038101906101709190611823565b6110d9565b6040516101829190611c8e565b60405180910390f35b610193611329565b6040516101a09190611e7d565b60405180910390f35b6101c360048036038101906101be9190611ecb565b611600565b005b60005b6001548110156103b1573373ffffffffffffffffffffffffffffffffffffffff16600082815481106101fd576101fc611ef8565b5b9060005260206000200160009054906101000a900473ffffffffffffffffffffffffffffffffffffffff1673ffffffffffffffffffffffffffffffffffffffff160361039e5760005b60058054905081101561039c578585604051602001610266929190611f66565b60405160208183030381529060405280519060200120600582815481106102905761028f611ef8565b5b90600052602060002090600602016001016040516020016102b19190612073565b60405160208183030381529060405280519060200120148015610345575083836040516020016102e2929190611f66565b604051602081830303815290604052805190602001206005828154811061030c5761030b611ef8565b5b906000526020600020906006020160000160405160200161032d9190612073565b60405160208183030381529060405280519060200120145b15610389576000600582815481106103605761035f611ef8565b5b906000526020600020906006020160050160006101000a81548160ff0219169083151502179055505b8080610394906120b9565b915050610246565b505b80806103a9906120b9565b9150506101c8565b5050505050565b600080600090505b600154811015610887573373ffffffffffffffffffffffffffffffffffffffff16600082815481106103f5576103f4611ef8565b5b9060005260206000200160009054906101000a900473ffffffffffffffffffffffffffffffffffffffff1673ffffffffffffffffffffffffffffffffffffffff16036108745760005b6005805490508110156105e257848460405160200161045e929190611f66565b604051602081830303815290604052805190602001206005828154811061048857610487611ef8565b5b90600052602060002090600602016004016040516020016104a99190612073565b60405160208183030381529060405280519060200120036104ce576000925050610873565b87876040516020016104e1929190611f66565b604051602081830303815290604052805190602001206005828154811061050b5761050a611ef8565b5b906000526020600020906006020160010160405160200161052c9190612073565b604051602081830303815290604052805190602001201480156105c05750898960405160200161055d929190611f66565b604051602081830303815290604052805190602001206005828154811061058757610586611ef8565b5b90600052602060002090600602016000016040516020016105a89190612073565b60405160208183030381529060405280519060200120145b156105cf576001925050610873565b80806105da906120b9565b91505061043e565b50600389896040516105f5929190611f66565b908152602001604051809103902060009054906101000a900473ffffffffffffffffffffffffffffffffffffffff1673ffffffffffffffffffffffffffffffffffffffff163373ffffffffffffffffffffffffffffffffffffffff16036108725760056040518060c001604052808b8b8080601f016020809104026020016040519081016040528093929190818152602001838380828437600081840152601f19601f82011690508083019250505050505050815260200189898080601f016020809104026020016040519081016040528093929190818152602001838380828437600081840152601f19601f82011690508083019250505050505050815260200142815260200187815260200186868080601f016020809104026020016040519081016040528093929190818152602001838380828437600081840152601f19601f8201169050808301925050505050505081526020016001151581525090806001815401808255809150506001900390600052602060002090600602016000909190919091506000820151816000019080519060200190610799929190611711565b5060208201518160010190805190602001906107b6929190611711565b50604082015181600201556060820151816003015560808201518160040190805190602001906107e7929190611711565b5060a08201518160050160006101000a81548160ff0219169083151502179055505050336004858560405161081d929190611f66565b908152602001604051809103902060006101000a81548173ffffffffffffffffffffffffffffffffffffffff021916908373ffffffffffffffffffffffffffffffffffffffff16021790555060029150610873565b5b5b808061087f906120b9565b9150506103c0565b50979650505050505050565b606080606060008060005b600154811015610cb8573373ffffffffffffffffffffffffffffffffffffffff16600082815481106108d3576108d2611ef8565b5b9060005260206000200160009054906101000a900473ffffffffffffffffffffffffffffffffffffffff1673ffffffffffffffffffffffffffffffffffffffff1603610ca55760005b600580549050811015610ca2578a8a60405160200161093c929190611f66565b604051602081830303815290604052805190602001206005828154811061096657610965611ef8565b5b90600052602060002090600602016001016040516020016109879190612073565b60405160208183030381529060405280519060200120148015610a1b575088886040516020016109b8929190611f66565b60405160208183030381529060405280519060200120600582815481106109e2576109e1611ef8565b5b9060005260206000209060060201600001604051602001610a039190612073565b60405160208183030381529060405280519060200120145b15610c8f5760058181548110610a3457610a33611ef8565b5b906000526020600020906006020160000160058281548110610a5957610a58611ef8565b5b906000526020600020906006020160010160058381548110610a7e57610a7d611ef8565b5b906000526020600020906006020160040160058481548110610aa357610aa2611ef8565b5b90600052602060002090600602016002015460058581548110610ac957610ac8611ef8565b5b906000526020600020906006020160030154848054610ae790611fae565b80601f0160208091040260200160405190810160405280929190818152602001828054610b1390611fae565b8015610b605780601f10610b3557610100808354040283529160200191610b60565b820191906000526020600020905b815481529060010190602001808311610b4357829003601f168201915b50505050509450838054610b7390611fae565b80601f0160208091040260200160405190810160405280929190818152602001828054610b9f90611fae565b8015610bec5780601f10610bc157610100808354040283529160200191610bec565b820191906000526020600020905b815481529060010190602001808311610bcf57829003601f168201915b50505050509350828054610bff90611fae565b80601f0160208091040260200160405190810160405280929190818152602001828054610c2b90611fae565b8015610c785780601f10610c4d57610100808354040283529160200191610c78565b820191906000526020600020905b815481529060010190602001808311610c5b57829003601f168201915b505050505092509650965096509650965050610ca4565b8080610c9a906120b9565b91505061091c565b505b5b8080610cb0906120b9565b91505061089e565b50945094509450945094565b600080600090505b600154811015610fae573373ffffffffffffffffffffffffffffffffffffffff1660008281548110610d0157610d00611ef8565b5b9060005260206000200160009054906101000a900473ffffffffffffffffffffffffffffffffffffffff1673ffffffffffffffffffffffffffffffffffffffff1603610f9b5760005b600680549050811015610e70578484604051602001610d6a929190611f66565b6040516020818303038152906040528051906020012060068281548110610d9457610d93611ef8565b5b9060005260206000209060040201600301604051602001610db59190612073565b6040516020818303038152906040528051906020012003610dda576000925050610f9a565b8787604051602001610ded929190611f66565b6040516020818303038152906040528051906020012060068281548110610e1757610e16611ef8565b5b9060005260206000209060040201600001604051602001610e389190612073565b6040516020818303038152906040528051906020012003610e5d576001925050610f9a565b8080610e68906120b9565b915050610d4a565b506006604051806080016040528089898080601f016020809104026020016040519081016040528093929190818152602001838380828437600081840152601f19601f82011690508083019250505050505050815260200142815260200187815260200186868080601f016020809104026020016040519081016040528093929190818152602001838380828437600081840152601f19601f8201169050808301925050505050505081525090806001815401808255809150506001900390600052602060002090600402016000909190919091506000820151816000019080519060200190610f61929190611711565b5060208201518160010155604082015181600201556060820151816003019080519060200190610f92929190611711565b505050600291505b5b8080610fa6906120b9565b915050610ccc565b5095945050505050565b606060005b6001548110156110d5573373ffffffffffffffffffffffffffffffffffffffff1660008281548110610ff257610ff1611ef8565b5b9060005260206000200160009054906101000a900473ffffffffffffffffffffffffffffffffffffffff1673ffffffffffffffffffffffffffffffffffffffff16036110c25760008054806020026020016040519081016040528092919081815260200182805480156110ba57602002820191906000526020600020905b8160009054906101000a900473ffffffffffffffffffffffffffffffffffffffff1673ffffffffffffffffffffffffffffffffffffffff1681526020019060010190808311611070575b505050505091505b80806110cd906120b9565b915050610fbd565b5090565b606060005b6005805490508110156111f85785856040516020016110fe929190611f66565b604051602081830303815290604052805190602001206005828154811061112857611127611ef8565b5b90600052602060002090600602016004016040516020016111499190612073565b604051602081830303815290604052805190602001201480156111a25750600015156005828154811061117f5761117e611ef8565b5b906000526020600020906006020160050160009054906101000a900460ff161515145b156111e5576040518060400160405280601581526020017f4365727469666963617465205265766f6b656421210000000000000000000000815250915050611321565b80806111f0906120b9565b9150506110de565b506003838360405161120b929190611f66565b908152602001604051809103902060009054906101000a900473ffffffffffffffffffffffffffffffffffffffff1673ffffffffffffffffffffffffffffffffffffffff1660048686604051611262929190611f66565b908152602001604051809103902060009054906101000a900473ffffffffffffffffffffffffffffffffffffffff1673ffffffffffffffffffffffffffffffffffffffff16146112e7576040518060400160405280601181526020017f46616c736520436572746966696361746500000000000000000000000000000081525061131e565b6040518060400160405280601981526020017f41757468656e74696361746564204365727469666963617465000000000000008152505b90505b949350505050565b606060005b6001548110156115fc573373ffffffffffffffffffffffffffffffffffffffff166000828154811061136357611362611ef8565b5b9060005260206000200160009054906101000a900473ffffffffffffffffffffffffffffffffffffffff1673ffffffffffffffffffffffffffffffffffffffff16036115e9576005805480602002602001604051908101604052809291908181526020016000905b828210156115e257838290600052602060002090600602016040518060c00160405290816000820180546113fe90611fae565b80601f016020809104026020016040519081016040528092919081815260200182805461142a90611fae565b80156114775780601f1061144c57610100808354040283529160200191611477565b820191906000526020600020905b81548152906001019060200180831161145a57829003601f168201915b5050505050815260200160018201805461149090611fae565b80601f01602080910402602001604051908101604052809291908181526020018280546114bc90611fae565b80156115095780601f106114de57610100808354040283529160200191611509565b820191906000526020600020905b8154815290600101906020018083116114ec57829003601f168201915b50505050508152602001600282015481526020016003820154815260200160048201805461153690611fae565b80601f016020809104026020016040519081016040528092919081815260200182805461156290611fae565b80156115af5780601f10611584576101008083540402835291602001916115af565b820191906000526020600020905b81548152906001019060200180831161159257829003601f168201915b505050505081526020016005820160009054906101000a900460ff161515151581525050815260200190600101906113cb565b5050505091505b80806115f4906120b9565b91505061132e565b5090565b60005b60015481101561170d573373ffffffffffffffffffffffffffffffffffffffff166000828154811061163857611637611ef8565b5b9060005260206000200160009054906101000a900473ffffffffffffffffffffffffffffffffffffffff1673ffffffffffffffffffffffffffffffffffffffff16036116fa576000829080600181540180825580915050600190039060005260206000200160009091909190916101000a81548173ffffffffffffffffffffffffffffffffffffffff021916908373ffffffffffffffffffffffffffffffffffffffff160217905550600160008154809291906116f4906120b9565b91905055505b8080611705906120b9565b915050611603565b5050565b82805461171d90611fae565b90600052602060002090601f01602090048101928261173f5760008555611786565b82601f1061175857805160ff1916838001178555611786565b82800160010185558215611786579182015b8281111561178557825182559160200191906001019061176a565b5b5090506117939190611797565b5090565b5b808211156117b0576000816000905550600101611798565b5090565b600080fd5b600080fd5b600080fd5b600080fd5b600080fd5b60008083601f8401126117e3576117e26117be565b5b8235905067ffffffffffffffff811115611800576117ff6117c3565b5b60208301915083600182028301111561181c5761181b6117c8565b5b9250929050565b6000806000806040858703121561183d5761183c6117b4565b5b600085013567ffffffffffffffff81111561185b5761185a6117b9565b5b611867878288016117cd565b9450945050602085013567ffffffffffffffff81111561188a576118896117b9565b5b611896878288016117cd565b925092505092959194509250565b6000819050919050565b6118b7816118a4565b81146118c257600080fd5b50565b6000813590506118d4816118ae565b92915050565b60008060008060008060006080888a0312156118f9576118f86117b4565b5b600088013567ffffffffffffffff811115611917576119166117b9565b5b6119238a828b016117cd565b9750975050602088013567ffffffffffffffff811115611946576119456117b9565b5b6119528a828b016117cd565b955095505060406119658a828b016118c5565b935050606088013567ffffffffffffffff811115611986576119856117b9565b5b6119928a828b016117cd565b925092505092959891949750929550565b6000819050919050565b6119b6816119a3565b82525050565b60006020820190506119d160008301846119ad565b92915050565b600081519050919050565b600082825260208201905092915050565b60005b83811015611a115780820151818401526020810190506119f6565b83811115611a20576000848401525b50505050565b6000601f19601f8301169050919050565b6000611a42826119d7565b611a4c81856119e2565b9350611a5c8185602086016119f3565b611a6581611a26565b840191505092915050565b611a79816118a4565b82525050565b600060a0820190508181036000830152611a998188611a37565b90508181036020830152611aad8187611a37565b90508181036040830152611ac18186611a37565b9050611ad06060830185611a70565b611add6080830184611a70565b9695505050505050565b600080600080600060608688031215611b0357611b026117b4565b5b600086013567ffffffffffffffff811115611b2157611b206117b9565b5b611b2d888289016117cd565b95509550506020611b40888289016118c5565b935050604086013567ffffffffffffffff811115611b6157611b606117b9565b5b611b6d888289016117cd565b92509250509295509295909350565b600081519050919050565b600082825260208201905092915050565b6000819050602082019050919050565b600073ffffffffffffffffffffffffffffffffffffffff82169050919050565b6000611bd382611ba8565b9050919050565b611be381611bc8565b82525050565b6000611bf58383611bda565b60208301905092915050565b6000602082019050919050565b6000611c1982611b7c565b611c238185611b87565b9350611c2e83611b98565b8060005b83811015611c5f578151611c468882611be9565b9750611c5183611c01565b925050600181019050611c32565b5085935050505092915050565b60006020820190508181036000830152611c868184611c0e565b905092915050565b60006020820190508181036000830152611ca88184611a37565b905092915050565b600081519050919050565b600082825260208201905092915050565b6000819050602082019050919050565b600082825260208201905092915050565b6000611cf8826119d7565b611d028185611cdc565b9350611d128185602086016119f3565b611d1b81611a26565b840191505092915050565b611d2f816118a4565b82525050565b60008115159050919050565b611d4a81611d35565b82525050565b600060c0830160008301518482036000860152611d6d8282611ced565b91505060208301518482036020860152611d878282611ced565b9150506040830151611d9c6040860182611d26565b506060830151611daf6060860182611d26565b5060808301518482036080860152611dc78282611ced565b91505060a0830151611ddc60a0860182611d41565b508091505092915050565b6000611df38383611d50565b905092915050565b6000602082019050919050565b6000611e1382611cb0565b611e1d8185611cbb565b935083602082028501611e2f85611ccc565b8060005b85811015611e6b5784840389528151611e4c8582611de7565b9450611e5783611dfb565b925060208a01995050600181019050611e33565b50829750879550505050505092915050565b60006020820190508181036000830152611e978184611e08565b905092915050565b611ea881611bc8565b8114611eb357600080fd5b50565b600081359050611ec581611e9f565b92915050565b600060208284031215611ee157611ee06117b4565b5b6000611eef84828501611eb6565b91505092915050565b7f4e487b7100000000000000000000000000000000000000000000000000000000600052603260045260246000fd5b600081905092915050565b82818337600083830152505050565b6000611f4d8385611f27565b9350611f5a838584611f32565b82840190509392505050565b6000611f73828486611f41565b91508190509392505050565b7f4e487b7100000000000000000000000000000000000000000000000000000000600052602260045260246000fd5b60006002820490506001821680611fc657607f821691505b602082108103611fd957611fd8611f7f565b5b50919050565b60008190508160005260206000209050919050565b6000815461200181611fae565b61200b8186611f27565b9450600182166000811461202657600181146120375761206a565b60ff1983168652818601935061206a565b61204085611fdf565b60005b8381101561206257815481890152600182019150602081019050612043565b838801955050505b50505092915050565b600061207f8284611ff4565b915081905092915050565b7f4e487b7100000000000000000000000000000000000000000000000000000000600052601160045260246000fd5b60006120c4826118a4565b91507fffffffffffffffffffffffffffffffffffffffffffffffffffffffffffffffff82036120f6576120f561208a565b5b60018201905091905056fea2646970667358221220f77d0af34d9d450b9b11223dfa0431d7d12f069a3ee5b7b4da439c8e6acf2f9a64736f6c634300080d0033",
  "immutableReferences": {},
  "source": "// SPDX-License-Identifier: GPL-3.0\r\n\r\npragma solidity >=0.7.0 <0.9.0;\r\n\r\ncontract Authenticate{\r\n\r\n    address[] CA;\r\n    uint CAno;\r\n    mapping (string => uint) CRL;\r\n    mapping (string => address) VersityAddress;\r\n    mapping (string => address) CertificateAddress;\r\n\r\n    \r\n\r\n    constructor() public {\r\n        CA.push( msg.sender);\r\n        CAno++;\r\n        VersityAddress[\"Ahsanullah University\"] = 0xC1BfA82A3F78535dE497f9690a3F705c2f4f7eAf;\r\n        // UD.push(User({versityName : \"Ahsanullah University\",roll : \"180104065\",startDate:1670778000 ,endDate:1671231600 , hash : \"QmRXJG4HjoPo8GJu3NqZV7GzcTZU9mdUV8PZxwoWC7c542\",status : true}));\r\n        // CertificateAddress[\"QmRXJG4HjoPo8GJu3NqZV7GzcTZU9mdUV8PZxwoWC7c542\"] = 0xC1BfA82A3F78535dE497f9690a3F705c2f4f7eAf;\r\n        // UD.push(User({versityName : \"Ahsanullah University\",roll : \"180104061\",startDate:1670778000 ,endDate:1671231600 , hash : \"QmQtMkqKfaXuXudQjaDiC1WoZ8ZLjd8GfqBDMNXkrmvYwn\",status : true}));\r\n        // CertificateAddress[\"QmQtMkqKfaXuXudQjaDiC1WoZ8ZLjd8GfqBDMNXkrmvYwn\"] = 0xC1BfA82A3F78535dE497f9690a3F705c2f4f7eAf;\r\n\r\n    }\r\n\r\n    modifier CAOnly(){\r\n        for(uint i=0; i<CAno;i++){\r\n            if( CA[i] == msg.sender){\r\n                _; \r\n            }\r\n        }\r\n    }\r\n\r\n    function CAaddress() public CAOnly() view returns(address[] memory){\r\n        return CA;\r\n    }\r\n\r\n    function CAautherize(address _address) public CAOnly(){\r\n        CA.push( _address);\r\n        CAno++;\r\n    }\r\n\r\n\r\n    struct User { \r\n        string versityName;\r\n        string roll;\r\n        uint startDate;\r\n        uint endDate;\r\n        string hash;\r\n        bool status;\r\n    }\r\n    struct Notice { \r\n        string id;\r\n        uint startDate;\r\n        uint endDate;\r\n        string hash;\r\n    }\r\n    User[] UD;\r\n    Notice[] ND;\r\n    //string[] UserRoll;\r\n    string currentR;\r\n    string currentH;\r\n    string currentVN;\r\n\r\n    function CreateNotice(string calldata _ID,uint _ED,string calldata _H) public CAOnly() returns (int){\r\n        for(uint i = 0; i < ND.length ; i++){\r\n            if(keccak256(abi.encodePacked((ND[i].hash))) == keccak256(abi.encodePacked((_H)))){\r\n                return 0;\r\n            }\r\n            else if((keccak256(abi.encodePacked((ND[i].id))) == keccak256(abi.encodePacked((_ID))))){\r\n                return 1;\r\n            }\r\n        }\r\n        \r\n        ND.push(Notice({id : _ID,startDate: block.timestamp,endDate: _ED, hash : _H}));\r\n        return 2;\r\n        \r\n    }\r\n\r\n    function CreateUser(string calldata _VN,string calldata _R,uint _ED,string calldata _H) public CAOnly() returns (int){\r\n        for(uint i = 0; i < UD.length ; i++){\r\n            if(keccak256(abi.encodePacked((UD[i].hash))) == keccak256(abi.encodePacked((_H)))){\r\n                return 0;\r\n            }\r\n            else if((keccak256(abi.encodePacked((UD[i].roll))) == keccak256(abi.encodePacked((_R)))) && (keccak256(abi.encodePacked((UD[i].versityName))) == keccak256(abi.encodePacked((_VN))))){\r\n                return 1;\r\n            }\r\n        }\r\n        \r\n        if(msg.sender == VersityAddress[_VN]){\r\n            UD.push(User({versityName : _VN,roll : _R,startDate: block.timestamp,endDate: _ED, hash : _H,status : true}));\r\n            CertificateAddress[_H] = msg.sender;\r\n            return 2;\r\n        }\r\n        \r\n        \r\n    }\r\n\r\n    // function SetCurrentUser(string memory _R,string memory _VN) public CAOnly(){\r\n    //     currentR = _R;\r\n    //     currentVN = _VN;\r\n    // }\r\n\r\n    // function UserInfo2() public CAOnly() view returns(string memory ,string memory ,string memory){\r\n\r\n    //     for(uint i = 0; i < UD.length ; i++){\r\n    //         if((keccak256(abi.encodePacked((UD[i].roll))) == keccak256(abi.encodePacked((currentR)))) && (keccak256(abi.encodePacked((UD[i].versityName))) == keccak256(abi.encodePacked((currentVN))))){\r\n    //             return (UD[i].versityName,UD[i].roll,UD[i].hash);\r\n    //         }\r\n    //     }\r\n\r\n    // }\r\n\r\n    function UserInfo(string calldata _R,string calldata _VN) public CAOnly() view returns (string memory ,string memory ,string memory,uint,uint) {\r\n\r\n        for(uint i = 0; i < UD.length ; i++){\r\n            if((keccak256(abi.encodePacked((UD[i].roll))) == keccak256(abi.encodePacked((_R)))) && (keccak256(abi.encodePacked((UD[i].versityName))) == keccak256(abi.encodePacked((_VN))))){\r\n                return (UD[i].versityName,UD[i].roll,UD[i].hash,UD[i].startDate,UD[i].endDate);\r\n            }\r\n        }\r\n\r\n    }\r\n    function AllUser() public CAOnly() view returns (User[] memory) {\r\n        return (UD);\r\n    }\r\n\r\n\r\n    function BanUser(string calldata _R,string calldata _VN) public CAOnly() {\r\n\r\n        for(uint i = 0; i < UD.length ; i++){\r\n            if((keccak256(abi.encodePacked((UD[i].roll))) == keccak256(abi.encodePacked((_R)))) && (keccak256(abi.encodePacked((UD[i].versityName))) == keccak256(abi.encodePacked((_VN))))){\r\n                UD[i].status = false;\r\n            }\r\n        }\r\n\r\n    }\r\n\r\n    // function RevocationList(string memory _A) public CAOnly(){\r\n    //     CRL[_A] = 1;\r\n    // }\r\n\r\n    // function ViewRevocationList() public CAOnly() view returns(string memory){\r\n    //     if(CRL[currentR]==0){\r\n    //         return string(abi.encodePacked(currentR,\" is not banned..\"));\r\n    //     }\r\n    //     else{\r\n    //         return string(abi.encodePacked(currentR,\" is banned..\"));\r\n    //     }\r\n    // }\r\n\r\n    // function CurrentHash(string memory _H) public CAOnly(){\r\n    //     currentH = _H;\r\n    // }\r\n\r\n    // function CheckCertificate4() public CAOnly() view returns(string memory){\r\n\r\n    //     for(uint i = 0; i < UD.length ; i++){\r\n    //         if(keccak256(abi.encodePacked((UD[i].hash))) == keccak256(abi.encodePacked((currentH)))){\r\n    //             return \"Authenticated Certificate\";\r\n    //         }\r\n    //     }\r\n    //     return \"False Certificate\";\r\n        \r\n    // }\r\n\r\n    // function CurrentHashandVN(string memory _H,string memory _VN) public CAOnly(){\r\n    //     currentH = _H;\r\n    //     currentVN = _VN;\r\n    // }\r\n\r\n    // function CheckCertificate2() public CAOnly() view returns(string memory){\r\n    //     if(CertificateAddress[currentH] ==  VersityAddress[currentVN]){\r\n    //         return \"Authenticated Certificate\";\r\n    //     }\r\n    //     else{\r\n    //         return \"False Certificate\";\r\n    //     }\r\n    // }\r\n\r\n    // function CheckCertificate3(string memory _H,string memory _VN) public CAOnly() view returns(string memory){\r\n    //     if(CertificateAddress[_H] ==  VersityAddress[_VN]){\r\n    //         return \"Authenticated Certificate\";\r\n    //     }\r\n    //     else{\r\n    //         return \"False Certificate\";\r\n    //     }\r\n    // }\r\n\r\n    function CheckCertificate(string calldata _H,string calldata _VN) public view returns (string memory) {\r\n        for(uint i = 0; i < UD.length ; i++){\r\n            if((keccak256(abi.encodePacked((UD[i].hash))) == keccak256(abi.encodePacked((_H)))) &&(UD[i].status==false)){\r\n                return \"Certificate Revoked!!\";\r\n            }\r\n        }\r\n        return (CertificateAddress[_H] ==  VersityAddress[_VN]) ? \r\n        \"Authenticated Certificate\" : \"False Certificate\"; \r\n    }\r\n\r\n}",
  "sourcePath": "C:\\Users\\Ayon\\Desktop\\Thesis\\Project\\src\\contracts\\Authenticate.sol",
  "compiler": {
    "name": "solc",
    "version": "0.8.13+commit.abaa5c0e.Emscripten.clang"
  },
  "schemaVersion": "3.4.7",
  "updatedAt": "2023-02-03T13:16:12.581Z",
  "networkType": "ethereum",
  "devdoc": {
    "kind": "dev",
    "methods": {},
    "version": 1
  },
  "userdoc": {
    "kind": "user",
    "methods": {},
    "version": 1
  }
}